# Standard Prova Transactions

These example transactions are provided for developers as easy reference points for testing
valid transactions in the Prova blockchain.

## Coinbase Transaction

Prova coinbase transactions spend to standard Prova outputs.

```
// Raw Hex:
01000000010000000000000000000000000000000000000000000000000000000000000000ffffffff07062f726d67642fffffffff0100f2052a010000001a521435dbbf04bca061e49dace08f858d8775c0a57c8e515253ba01000000
```

```
// Parsed Transaction:
id: c265f7da0c6433997798bc963d535cb9038bb8b73d565b73b1959a4179151c55

input: 0
  sequence: 4294967295
  signature: 2f726d67642f
locktime: height(1)
output 0
  spending: 5000000000 tokens
  to asm: 2 35dbbf04bca061e49dace08f858d8775c0a57c8e 1 2 3 op_checksafemultisig
  to hex: 521435dbbf04bca061e49dace08f858d8775c0a57c8e515253ba
version: 1
```

## Standard Transaction

A standard Prova transaction looks like a send to an n-of-m output with two key ids and one public key hash. This transaction spends the above coinbase transaction.

```
// Pseudocode:
{
  "signing_keys": [
    "eaf02ca348c524e6392655ba4d29603cd1a7347d9d65cfe93ce1ebffdca22694",
    "2b8c52b77b327c755b9b375500d3f4b2da9b0a1ff65f6891d311fe94295bc26a"
  ],
  "spend_from": [
    "c265f7da0c6433997798bc963d535cb9038bb8b73d565b73b1959a4179151c55:0"
  ],
  "spend_to": [{
    "address": "TCq7ZvyjTugZ3xDY8m1Mdgm95v4QmNuqYXYbutQgDgHtW",
    "amount": 5000000000
  }]
}
```

```
// Unsigned Raw Hex:
0100000001551c1579419a95b1735b563db7b88b03b95c533d96bc98779933640cdaf765c20000000000ffffffff0100f2052a010000001a521435dbbf04bca061e49dace08f858d8775c0a57c8e515253ba00000000
```

```
// Half Signed Raw Hex:
0100000001551c1579419a95b1735b563db7b88b03b95c533d96bc98779933640cdaf765c2000000006a21025ceeba2ab4a635df2c0301a3d773da06ac5a18a7c3e0d09a795d7e57d233edf14730440220084792c32225d03bf8fc11836b25e7d599adb60fed95994518f8b70d7bab103802205301534154a321860c6b0caca4ec343e2e4b041c8b680812383341cea63617f801ffffffff0100f2052a010000001a521435dbbf04bca061e49dace08f858d8775c0a57c8e515253ba00000000
```

```
// Fully Signed Raw Hex:
0100000001551c1579419a95b1735b563db7b88b03b95c533d96bc98779933640cdaf765c200000000d421025ceeba2ab4a635df2c0301a3d773da06ac5a18a7c3e0d09a795d7e57d233edf14730440220084792c32225d03bf8fc11836b25e7d599adb60fed95994518f8b70d7bab103802205301534154a321860c6b0caca4ec343e2e4b041c8b680812383341cea63617f80121038ef4a121bcaf1b1f175557a12896f8bc93b095e84817f90e9a901cd2113a8202473044022021b8ed446df5f2bfd7d0bce45fb44409d4443705e37ab0473de5f61dc9e2aaad022045fcfc0eb3ee07e3c5d9c9061e57f4be1a33e9ad637461ba0bf77c24b4cfb2e101ffffffff0100f2052a010000001a521435dbbf04bca061e49dace08f858d8775c0a57c8e515253ba00000000
```

```
// Parsed Transaction:
id: 6f62d17586a9ef47bf217111589a1b2f7738ed8fe6a43657035ba6821918cf03

input: 0
  spending outpoint: c265f7da0c6433997798bc963d535cb9038bb8b73d565b73b1959a4179151c55:0
  sequence: 4294967295
  signature: 025ceeba2ab4a635df2c0301a3d773da06ac5a18a7c3e0d09a795d7e57d233edf1 30440220084792c32225d03bf8fc11836b25e7d599adb60fed95994518f8b70d7bab103802205301534154a321860c6b0caca4ec343e2e4b041c8b680812383341cea63617f801 038ef4a121bcaf1b1f175557a12896f8bc93b095e84817f90e9a901cd2113a8202 3044022021b8ed446df5f2bfd7d0bce45fb44409d4443705e37ab0473de5f61dc9e2aaad022045fcfc0eb3ee07e3c5d9c9061e57f4be1a33e9ad637461ba0bf77c24b4cfb2e101
locktime: height(0)
output 0
  spending: 5000000000 tokens
  to asm: 2 35dbbf04bca061e49dace08f858d8775c0a57c8e 1 2 3 op_checksafemultisig
  to hex: 521435dbbf04bca061e49dace08f858d8775c0a57c8e515253ba
version: 1
```

## Re-spend Transaction

In the normal scenario, a Prova transaction would not be spending a coinbase, it would be spending the unspent outputs of a previous transaction. This transaction re-spends the above transaction.

```
// Pseudocode:
{
  "signing_keys": [
    "eaf02ca348c524e6392655ba4d29603cd1a7347d9d65cfe93ce1ebffdca22694",
    "2b8c52b77b327c755b9b375500d3f4b2da9b0a1ff65f6891d311fe94295bc26a"
  ],
  "spend_from": [
    "6f62d17586a9ef47bf217111589a1b2f7738ed8fe6a43657035ba6821918cf03:0"
  ],
  "spend_to": [
    {
      "address": "TCq7ZvyjTugZ3xDY8m1Mdgm95v4QmNuqYXYbutQgDgHtW",
      "amount": 1000000000
    },
    {
      "address": "TCq7ZvyjTugZ3xDY8m1Mdgm95v4QmNuqYXYbutQgDgHtW",
      "amount": 4000000000
    }
  ]
}
```

```
// Signed Raw Tx:
010000000103cf181982a65b035736a4e68fed38772f1b9a58117121bf47efa98675d1626f00000000d521025ceeba2ab4a635df2c0301a3d773da06ac5a18a7c3e0d09a795d7e57d233edf14730440220766a2761f59372d5e091fdb78511ece82798b29228e7d4516f2257ec8e49f1c802206cfe0f1ee2a90fcc9a78e65070d48db5491487db61836c7bb86b5f545c9356e90121038ef4a121bcaf1b1f175557a12896f8bc93b095e84817f90e9a901cd2113a8202483045022100af15475e4a0726d8ff25694b5e3fee28b996866532e5b84fb7a34bf615ce8ef902206af1a53bc152761e4c0ac9a4b1179b51663ecf0b9f02773bfc8fe72c6e72680501ffffffff0200ca9a3b000000001a521435dbbf04bca061e49dace08f858d8775c0a57c8e515253ba00286bee000000001a521435dbbf04bca061e49dace08f858d8775c0a57c8e515253ba00000000
```

```
// Parsed Transaction:
id: 706e4e021a8c87749e16f3a8c6159da690e4a4b8f58f3c4e2185b9ddf3b07e3d

input: 0
  spending outpoint: 6f62d17586a9ef47bf217111589a1b2f7738ed8fe6a43657035ba6821918cf03:0
  sequence: 4294967295
  signature: 025ceeba2ab4a635df2c0301a3d773da06ac5a18a7c3e0d09a795d7e57d233edf1 30440220766a2761f59372d5e091fdb78511ece82798b29228e7d4516f2257ec8e49f1c802206cfe0f1ee2a90fcc9a78e65070d48db5491487db61836c7bb86b5f545c9356e901 038ef4a121bcaf1b1f175557a12896f8bc93b095e84817f90e9a901cd2113a8202 3045022100af15475e4a0726d8ff25694b5e3fee28b996866532e5b84fb7a34bf615ce8ef902206af1a53bc152761e4c0ac9a4b1179b51663ecf0b9f02773bfc8fe72c6e72680501
locktime: height(0)
output 0
  spending: 1000000000 tokens
  to asm: 2 35dbbf04bca061e49dace08f858d8775c0a57c8e 1 2 3 op_checksafemultisig
  to hex: 521435dbbf04bca061e49dace08f858d8775c0a57c8e515253ba
output 1
  spending: 4000000000 tokens
  to asm: 2 35dbbf04bca061e49dace08f858d8775c0a57c8e 1 2 3 op_checksafemultisig
  to hex: 521435dbbf04bca061e49dace08f858d8775c0a57c8e515253ba
version: 1
```

